:100000000C946D000C9450060C9422060C949205EE
:100010000C9402050C9457040C9495000C949500D4
:100020000C9495000C9495000C9495000C949500FC
:100030000C9495000C9495000C9495000C949500EC
:100040000C94E8030C9495000C9445030C941F0346
:100050000C9495000C9495000C9495000C949500CC
:100060000C9495000C94950000010203040506070A
:100070000001020304050001020304050000000062
:10008000250028002B000000000023002600290086
:10009000040404040404040402020202020203032E
:1000A0000303030301020408102040800102040836
:1000B00010200102040810200000000800020100C6
:1000C0000003040700000000000000000000000022
:1000D000240027002A00F10CED0C11241FBECFEFE5
:1000E000D8E0DEBFCDBF11E0A0E0B1E0EEE3F3E287
:1000F00002C005900D92AA36B107D9F722E0AAE610
:10010000B1E001C01D92A236B207E1F710E0CCE6E3
:10011000D0E004C02197FE010E94230DCB36D10709
:10012000C9F70E943D070C9492110C9400000895A9
:10013000CF92DF92EF92FF920F931F93CF93DF93B3
:100140006C017A018B01C0E0D0E0CE15DF0589F0AB
:10015000D8016D918D01D601ED91FC910190F08156
:10016000E02DC6010995892B11F47E0102C021966C
:10017000ECCFC701DF91CF911F910F91FF90EF90CE
:10018000DF90CF900895FC01918D828D981761F0DA
:10019000828DDF01A80FB11D5D968C91928D9F5FBE
:1001A0009F73928F90E008958FEF9FEF0895FC0169
:1001B000918D828D981731F0828DE80FF11D858D1C
:1001C00090E008958FEF9FEF0895FC01918D228DAF
:1001D000892F90E0805C9F4F821B91098F73992734
:1001E000089588EB91E00E94E50021E0892B09F455
:1001F00020E0822F0895FC01848DDF01A80FB11D3E
:10020000A35ABF4F2C91848D90E001968F7399274C
:10021000848FA689B7892C93A089B1898C91806439
:100220008C93938D848D981306C00288F389E02DFA
:1002300080818F7D80830895EF92FF920F931F93AB
:10024000CF93DF93EC0181E0888F9B8D8C8D981389
:1002500005C0E889F989808185FD24C0F62E0B8DC3
:1002600010E00F5F1F4F0F731127E02E8C8DE812E7
:100270000CC00FB607FCFACFE889F989808185FFA9
:10028000F5CFCE010E94FB00F1CF8B8DFE01E80F70
:10029000F11DE35AFF4FF0820B8FEA89FB898081C1
:1002A000806207C0EE89FF896083E889F9898081CF
:1002B0008064808381E090E0DF91CF911F910F9166
:1002C000FF90EF900895CF93DF93EC01888D882302
:1002D000C9F0EA89FB89808185FD05C0A889B989B3
:1002E0008C9186FD0FC00FB607FCF5CF808185FF8E
:1002F000F2CFA889B9898C9185FFEDCFCE010E94FC
:10030000FB00E7CFDF91CF91089580E090E0892B4B
:1003100029F00E94F10081110C9400000895809151
:10032000AE018093A0018091AD0180939F0108955B
:100330000E94200F0F931F93CF93DF93EC018881CE
:100340009981009729F02A813B812617370788F485
:100350008B016F5F7F4F0E94560E009761F099836B
:1003600088831B830A832C813D81232B11F4FC019C
:10037000108281E001C080E0DF91CF911F910F9149
:100380000895CF93DF93EC0188819981009711F054
:100390000E94BE0D198218821D821C821B821A8245
:1003A000DF91CF910895EF92FF920F931F93CF9318
:1003B000DF93FC01248135816115710511F480E022
:1003C00019C041155105A9F07B01EC018A01020F0A
:1003D000131FB8010E949A01882389F3288139816B
:1003E0008C819D81B701820F931F0E94370F1D835F
:1003F0000C8381E0DF91CF911F910F91FF90EF90DF
:100400000895CF93DF93EC016115710561F0FB0155
:1004100001900020E9F73197AF01461B570B0E946E
:10042000D301811103C0CE010E94C101CE01DF9131
:10043000CF910895CF93DF93EC01FB014481558167
:10044000608171810E94D301811103C0CE010E949D
:10045000C101CE01DF91CF910895EF92FF920F93EA
:100460001F93CF93DF938C017B016115710569F0B8
:10047000FB0101900020E9F73197EF01C61BD70B74
:10048000BE010E949A01811104C0C8010E94C101ED
:1004900008C0F801D583C483B701808191810E948F
:1004A000370FC801DF91CF911F910F91FF90EF900F
:1004B0000895FC01808191810C94BE0D0F931F93D0
:1004C000CF93DF93CDB7DEB7A1970FB6F894DEBF19
:1004D0000FBECDBF8C01CB01BA01F8011182108291
:1004E000138212821582148230E0AE014F5F5F4F9B
:1004F0000E949410BE016F5F7F4FC8010E942D02C1
:10050000A1960FB6F894DEBF0FBECDBFDF91CF919D
:100510001F910F9108950F931F93CF93DF93CDB742
:10052000DEB762970FB6F894DEBF0FBECDBF8C0169
:10053000CB01F8011182108213821282158214827B
:1005400050E0BE016F5F7F4F0E947610BE016F5F6B
:100550007F4FC8010E942D0262960FB6F894DEBF4D
:100560000FBECDBFDF91CF911F910F9108950F93D3
:100570001F93CF93DF93CDB7DEB729970FB6F894CB
:10058000DEBF0FBECDBF8C01862FF8011182108215
:10059000138212821582148250E0BE016F5F7F4F7A
:1005A00090E00E94C110BE016F5F7F4FC8010E94A2
:1005B0002D0229960FB6F894DEBF0FBECDBFDF9196
:1005C000CF911F910F910895EF92FF920F931F9378
:1005D000CF93DF93EC01198218821B821A821D824D
:1005E0001C826115710521F18B01FB010190002036
:1005F000E9F731977F01E61AF70AB7010E949A01DD
:10060000811109C0CE01DF91CF911F910F91FF9011
:10061000EF900C94C101FD82EC82B8018881998130
:10062000DF91CF911F910F91FF90EF900C94370FB6
:10063000DF91CF911F910F91FF90EF9008951F923E
:100640000F920FB60F9211242F933F934F935F9306
:100650006F937F938F939F93AF93BF93EF93FF938A
:1006600088EB91E00E94FB00FF91EF91BF91AF9169
:100670009F918F917F916F915F914F913F912F91BA
:100680000F900FBE0F901F9018951F920F920FB6EC
:100690000F9211242F938F939F93EF93FF93E091E9
:1006A000C801F091C9018081E091CE01F091CF01A4
:1006B00082FD12C090818091D1018F5F8F73209154
:1006C000D201821751F0E091D101F0E0E854FE4FE1
:1006D000958F8093D10101C08081FF91EF919F910F
:1006E0008F912F910F900FBE0F901F901895833010
:1006F00081F028F4813099F08230A1F0089587309C
:10070000A9F08830B9F08430D1F4809180008F7DD9
:1007100003C0809180008F7780938000089584B516
:100720008F7702C084B58F7D84BD08958091B0001D
:100730008F7703C08091B0008F7D8093B0000895C3
:10074000CF93DF9390E0FC01EC55FF4F2491FC0127
:10075000E057FF4F8491882361F190E0880F991F43
:10076000FC01E453FF4FC591D491FC01E458FF4FC5
:10077000A591B491611109C09FB7F8948881209523
:1007800082238883EC912E230BC0623061F49FB7E3
:10079000F8943881822F809583238883EC912E2BC7
:1007A0002C939FBF06C08FB7F894E8812E2B288327
:1007B0008FBFDF91CF9108952FB7F8946091B40166
:1007C0007091B5018091B6019091B7012FBF089546
:1007D0001F920F920FB60F9211242F933F938F9376
:1007E0009F93AF93BF938091B4019091B501A09175
:1007F000B601B091B7013091B30123E0230F2D373B
:1008000020F40196A11DB11D05C026E8230F029614
:10081000A11DB11D2093B3018093B4019093B50144
:10082000A093B601B093B7018091AF019091B00150
:10083000A091B101B091B2010196A11DB11D8093AB
:10084000AF019093B001A093B101B093B201BF91F9
:10085000AF919F918F913F912F910F900FBE0F906D
:100860001F90189590E0FC01EC55FF4F2491FC017E
:10087000E057FF4F849190E0880F991FFC01E453EB
:10088000FF4FA591B4913C91322359F4FC01E458F7
:10089000FF4FA591B491EC91E22331F480E090E018
:1008A000089581E090E0089582E090E008951F921D
:1008B0000F920FB60F9211242F933F934F935F9394
:1008C0006F937F938F939F93AF93BF93CF93DF9358
:1008D000EF93FF93D9B1C0916E0120919A0180915D
:1008E00099019D2F909598232D23922B80916D0037
:1008F000CD27C823C923D0936E01CC2309F46FC040
:10090000C0FF0BC01092AE018D2F81708093AD019E
:10091000E0916F01F09170010995C1FF0CC081E079
:100920008093AE018D2F82708093AD01E0917101B3
:10093000F09172010995C2FF0CC082E08093AE0174
:100940008D2F84708093AD01E0917301F09174015B
:100950000995C3FF0CC083E08093AE018D2F887092
:100960008093AD01E0917501F09176010995C4FF86
:100970000CC084E08093AE018D2F80718093AD0117
:10098000E0917701F09178010995C5FF0CC085E0F1
:100990008093AE018D2F80728093AD01E09179013B
:1009A000F0917A010995C6FF0CC086E08093AE01F4
:1009B0008D2F80748093AD01E0917B01F0917C01DB
:1009C0000995C7FF0CC087E08093AE018D2F80781A
:1009D0008093AD01E0917D01F0917E010995FF9139
:1009E000EF91DF91CF91BF91AF919F918F917F91C7
:1009F0006F915F914F913F912F910F900FBE0F908C
:100A00001F9018951F920F920FB60F9211242F93DB
:100A10003F934F935F936F937F938F939F93AF9386
:100A2000BF93CF93DF93EF93FF93D6B1C0917F0134
:100A300020919C0180919B019D2F909598232D23BF
:100A4000922B80916C00CD27C823C923D0937F01BE
:100A5000CC2309F454C0C0FF0CC08EE08093AE01DB
:100A60008D2F81708093AD01E0918001F091810123
:100A70000995C1FF0CC08FE08093AE018D2F82706D
:100A80008093AD01E0918201F09183010995C2FF4D
:100A90000CC080E18093AE018D2F84708093AD01F6
:100AA000E0918401F09185010995C3FF0CC081E1BB
:100AB0008093AE018D2F88708093AD01E091860107
:100AC000F09187010995C4FF0CC082E18093AE01CB
:100AD0008D2F80718093AD01E0918801F0918901A3
:100AE0000995C5FF0CC083E18093AE018D2F807204
:100AF0008093AD01E0918A01F0918B010995FF91FE
:100B0000EF91DF91CF91BF91AF919F918F917F91A5
:100B10006F915F914F913F912F910F900FBE0F906A
:100B20001F9018951F920F920FB60F9211242F93BA
:100B30003F934F935F936F937F938F939F93AF9365
:100B4000BF93CF93DF93EF93FF93D3B1C0918C0109
:100B500020919E0180919D019D2F909598232D239A
:100B6000922B80916B00CD27C823C923D0938C0191
:100B7000CC2309F454C0C0FF0CC088E08093AE01C0
:100B80008D2F81708093AD01E0918D01F0918E01E8
:100B90000995C1FF0CC089E08093AE018D2F827052
:100BA0008093AD01E0918F01F09190010995C2FF12
:100BB0000CC08AE08093AE018D2F84708093AD01CC
:100BC000E0919101F09192010995C3FF0CC08BE077
:100BD0008093AE018D2F88708093AD01E0919301D9
:100BE000F09194010995C4FF0CC08CE08093AE0194
:100BF0008D2F80718093AD01E0919501F091960168
:100C00000995C5FF0CC08DE08093AE018D2F8072D9
:100C10008093AD01E0919701F09198010995FF91C2
:100C2000EF91DF91CF91BF91AF919F918F917F9184
:100C30006F915F914F913F912F910F900FBE0F9049
:100C40001F9018951F920F920FB60F9211242F9399
:100C50003F934F935F936F937F938F939F93AF9344
:100C6000BF93EF93FF9383E08093AE0189B18870C7
:100C70008093AD01E0916C01F0916D010995FF91B8
:100C8000EF91BF91AF919F918F917F916F915F9104
:100C90004F913F912F910F900FBE0F901F9018957D
:100CA0001F920F920FB60F9211242F933F934F93E1
:100CB0005F936F937F938F939F93AF93BF93EF93C4
:100CC000FF9382E08093AE0189B184708093AD017F
:100CD000E0916A01F0916B010995FF91EF91BF914D
:100CE000AF919F918F917F916F915F914F913F91C4
:100CF0002F910F900FBE0F901F901895CF93DF93F9
:100D0000009779F0FC0101900020E9F73197AF01DD
:100D1000481B590BBC0188EB91E00E949800EC0144
:100D200002C0C0E0D0E042E050E066E671E088EB4F
:100D300091E00E9498008C0F9D1FDF91CF91089544
:100D4000CF93DF93FC01448155816081718188EBF1
:100D500091E00E949800EC0142E050E066E671E00C
:100D600088EB91E00E9498008C0F9D1FDF91CF913E
:100D700008952091590230915A028217930738F44E
:100D800020915502309156022115310529F4109217
:100D90005B028BE592E00895820F931F0895FF9206
:100DA0000F931F93CF93DF938C0168E671E00E944D
:100DB000E4028091590290915A020097E9F002975B
:100DC00018F0C2E0D0E002C0C1E0D0E0E0915502EE
:100DD000F0915602EC0FFD1FF080108260915502D9
:100DE00070915602C8010E942D0280915502909187
:100DF0005602C80FD91FF882C801DF91CF911F9109
:100E00000F91FF9008950F931F930E94DC0360934E
:100E1000C0017093C1018093C2019093C301E0911E
:100E2000B801F091B9010680F781E02D88EB91E0DF
:100E3000099597FF1FC00E94DC030091C00110912B
:100E4000C1012091C2013091C301DC01CB01801BA3
:100E5000910BA20BB30B0091BC011091BD0120912D
:100E6000BE013091BF0180179107A207B307B8F206
:100E70008FEF9FEF1F910F910895CF93DF93CDB721
:100E8000DEB76A970FB6F894DEBF0FBECDBF789479
:100E900084B5826084BD84B5816084BD85B582607F
:100EA00085BD85B5816085BD80916E008160809330
:100EB0006E00109281008091810082608093810099
:100EC00080918100816080938100809180008160A9
:100ED000809380008091B10084608093B100809104
:100EE000B00081608093B00080917A00846080932C
:100EF0007A0080917A00826080937A0080917A00F3
:100F0000816080937A0080917A00806880937A0073
:100F10001092C100E091C801F091C90182E0808384
:100F2000E091C401F091C5011082E091C601F091F9
:100F3000C70180E180831092D001E091CC01F09153
:100F4000CD0186E08083E091CA01F091CB018081E0
:100F500080618083E091CA01F091CB01808188603B
:100F60008083E091CA01F091CB0180818068808309
:100F7000E091CA01F091CB0180818F7D808380E078
:100F800090E00E94F9108F3F19F002E010E00CC0D1
:100F900000E010E060E0C8010E9401110F5F1F4FE8
:100FA00004311105B9F7F1CFC8010E94F910813061
:100FB00011F462E001C061E0802F0E94A0030F5F86
:100FC0001F4F0431110581F786E191E00E947E06F2
:100FD0000FE811E06DE6E62EF12C7CE8C72E70E0FC
:100FE000D72EECE6AE2EB12CFAE88F2EF0E09F2E35
:100FF000ABE66A2E712C88EB91E00E94E500039726
:101000000CF45CC068E671E0CE0101960E94E40237
:101010000E94030797FD0FC08A30910561F08F830E
:10102000188641E050E0BE01695F7F4FCE01019616
:101030000E94D301EDCF8091550290915602009706
:10104000C9F069817A816115710591F0409157026B
:10105000509158022D813E814217530748F00E945B
:10106000370F8D819E8190935A028093590218C048
:101070000E94BE0D89819A819093560280935502F9
:101080008B819C8190935802809357028D819E8121
:1010900090935A02809359021A8219821C821B82F1
:1010A0001E821D82CE0101960E9459028091590232
:1010B00090915A029093AC018093AB01CE010196BE
:1010C0000E94CF068D819E81892B51F069E171E0EC
:1010D00089819A810E942E0F55245394892B09F0FF
:1010E000512CCE0101960E945902552009F4F6C0F8
:1010F00082E090E00E94B906FC0180818D8783E048
:1011000090E00E94B906FC0180818E87CE010D9689
:101110000E944F102C019093AA018093A90102977D
:10112000429708F0D1C062E0842D0E94A0038EEFA8
:10113000840D823008F481C0F201EC55FF4F849198
:10114000F201E057FF4F9491923059F420919E01A3
:10115000282B20939E0120919D01282B20939D01F7
:1011600019C0933059F420919C01282B20939C01A5
:1011700020919B01282B20939B010CC0943051F4AB
:1011800020919A01282B20939A0120919901282BD4
:1011900020939901F201E859FF4FA4919230A9F4EC
:1011A000B0E0AA0FBB1FA357BE4F0D931C93F401D1
:1011B000A591B4919C9190938C017092A201609240
:1011C000A1019091680091602EC09330A9F4B0E025
:1011D000AA0FBB1FA058BE4F0D931C93F601A591FB
:1011E000B4919C9190937F01B092A201A092A10131
:1011F00090916800926017C09430B9F4B0E0AA0FE3
:10120000BB1FA159BE4F0D931C93EEE8F0E0A591D2
:10121000B4919C9190936E01F092A201E092A10191
:1012200090916800946090936800A091A101B091A2
:10123000A201EC918E2B8C9317C09FB7F894F2E02B
:101240004F12B1C310936B0100936A01E89880912B
:1012500069008C7F80936900809169008160809330
:101260006900E09AE89A9FBF8091A9019091AA0134
:10127000811524E0920719F061E00E94011160914C
:10128000A9017091AA014AE0CE0101960E948B0249
:101290006AE171E0CE0107960E94E402BE016F5F31
:1012A0007F4FCE0107960E941A026AE171E00E9408
:1012B00001020E94A006CE0107960E945902CE01AB
:1012C00001960E94590204C08CE191E00E947E06C2
:1012D0006BE271E085E592E00E942D02CE0101965D
:1012E0000E94CF068D819E81892B51F06DE271E0C5
:1012F00089819A810E942E0F55245394892B09F0DD
:10130000512CCE0101960E945902552009F4CDC0FE
:1013100082E090E00E94B906FC0180818D8783E025
:1013200090E00E94B906FC0180818E87CE010D9667
:101330000E944F102C019093AA018093A90102975B
:10134000429708F0A8C061E0842D0E94A0039FB7D7
:10135000F8948EEF840D823008F462C0F201EC55EF
:10136000FF4F8491F201E057FF4FE491E230E1F446
:1013700020916B00E82FE0958E2F822380936B00E5
:1013800080916B00811105C0809168008E7F8093F1
:10139000680080919E018E2380939E0180919D0123
:1013A000E823E0939D0146C0E330E1F420916C0016
:1013B000E82FE0958E2F822380936C0080916C0043
:1013C000811105C0809168008D7F809368008091B5
:1013D0009C018E2380939C0180919B01E823E093E4
:1013E0009B0128C0E43031F520916D00E82FE09595
:1013F0008E2F822380936D0080916D00811105C036
:10140000809168008B7F8093680080919A018E2381
:1014100080939A0180919901E823E09399010AC091
:10142000F2E04F12D2C2E898809169008C7F8093DD
:101430006900E09A9FBF8091A9019091AA0181154E
:1014400024E0920719F060E00E9401116091A90167
:101450007091AA014AE0CE0101960E948B026AE1D6
:1014600071E0CE0107960E94E402BE016F5F7F4FDC
:10147000CE0107960E941A0269E271E00E94010201
:101480000E94A006CE0107960E945902CE01019645
:101490000E94590204C08CE191E00E947E066BE23A
:1014A00071E085E592E00E942D0280E090E00E94CC
:1014B000B906FC018081893409F062C081E090E0C6
:1014C0000E94B906FC0180818D8782E090E00E9435
:1014D000B906FC0180818E87CE010D960E944F10C7
:1014E000BC019093AA018093A90102974297F0F55D
:1014F000862F698F7A8F0E943204698D7A8D4AE037
:101500000197A1F4CE0101960E948B026AE171E07D
:10151000CE0107960E94E402BE016F5F7F4FCE01AD
:1015200007960E941A0269E271E013C0CE0101968B
:101530000E948B026AE171E0CE0107960E94E402EC
:10154000BE016F5F7F4FCE0107960E941A026AE1CB
:1015500071E00E9401020E94A006CE0107960E943F
:101560005902CE0101960E94590204C08CE191E01B
:101570000E947E066BE271E085E592E00E942D02FA
:1015800080E090E00E94B906FC018081833509F07B
:10159000DDC08091AB019091AC0184309105B9F42C
:1015A00081E090E00E94B906FC01808189831A8263
:1015B00040E150E060E070E0CE0101960E943E0FF5
:1015C0007093AA016093A90182E090E01AC0059788
:1015D00021F581E090E00E94B906FC0180818983B9
:1015E00082E090E00E94B906FC0180818A83CE01EE
:1015F00001960E944F109093AA018093A90183E065
:1016000090E00E94B906FC018081082E000C990B25
:10161000C0979093A8018093A7015090A901409092
:10162000AA01852D0E943204019709F08AC0252D58
:10163000342DC9010297429708F080C03090A7016D
:101640002090A801F901E854FF4F8491F901EC556D
:10165000FF4F9491F901E057FF4F24912223D9F0D5
:10166000882331F02A8F998F0E947703998D2A8DD4
:10167000E22FF0E0EE0FFF1FE458FF4FA591B49169
:101680008FB7F894EC91311003C090959E2301C060
:101690009E2B9C938FBF0E94DC03AB01BC01409347
:1016A000A3015093A4016093A5017093A6012AE0C1
:1016B000CE0101960E945E024AE0632D722DCE019A
:1016C00007960E948B024AE0652D742DCE010D967F
:1016D0000E948B0260E371E0CE0143960E94E40217
:1016E000BE01635F7F4FCE0143960E941A02BE0186
:1016F000695F7F4F0E941A0262E371E00E9401025B
:10170000BE016F5F7F4F0E941A020E94A006CE01A9
:1017100043960E945902CE010D960E945902CE01B5
:1017200007960E945902CE0101960E9459026BE26F
:1017300071E085E592E00E942D02BDC08CE191E050
:1017400002C084E391E00E947E06B5C080E090E094
:101750000E94B906FC018081873409F06BC081E0EA
:1017600090E00E94B906FC0180818B8B82E090E0C2
:101770000E94B906FC0180818C8BCE0143960E94A9
:101780004F109C019093AA018093A9010297429760
:1017900008F04DC0F901E854FF4F8491F901EC5570
:1017A000FF4F5490F901E057FF4F4490442091F0CF
:1017B00081110E947703E42DF0E0EE0FFF1FEA573E
:1017C000FF4FA591B491EC915E2261E070E021F4AD
:1017D00060E002C060E070E06093A7017093A80130
:1017E0004AE0CE0101960E948B026091A90170919E
:1017F000AA014AE0CE0107960E948B0269E471E0DB
:10180000CE010D960E94E402BE01695F7F4FCE01BA
:101810000D960E941A02BE016F5F7F4F0E941A024E
:101820000E94A006CE010D960E9459023CC08BE496
:1018300091E089CF80E090E00E94B906FC018081B0
:10184000863549F44AE060E0CE0101960E94B70275
:1018500062E671E01BC080E090E00E94B906FC01E6
:101860008081843479F50E94DC03AB01BC01409394
:10187000A3015093A4016093A5017093A6012AE0EF
:10188000CE0101960E945E0264E671E0CE010796E9
:101890000E94E402BE016F5F7F4FCE0107960E9457
:1018A0001A020E94A006CE0107960E945902CE019C
:1018B00001960E9459026BE271E085E592E00E9478
:1018C0002D0210C080E090E00E94B906FC018081EA
:1018D000823541F41092A3011092A4011092A50147
:1018E0001092A6018091A001882309F455C080912F
:1018F0009F01823018F0F1E0F0939F010E94DC0319
:10190000AB01BC014093A3015093A4016093A501D6
:101910007093A6012AE0CE0101960E945E026091BA
:101920009F014AE0CE0107960E94B7026091A00194
:101930004AE0CE010D960E94B70260E371E0CE014D
:1019400043960E94E402BE01635F7F4FCE0143963F
:101950000E941A02BE01695F7F4F0E941A0262E371
:1019600071E00E940102BE016F5F7F4F0E941A0268
:101970000E94A006CE0143960E945902CE010D9608
:101980000E945902CE0107960E945902CE0101968B
:101990000E9459021092A00188EB91E00E9463011D
:1019A0000E94850128CB10936D0100936C01E9988A
:1019B00080916900837F80936900809169008460D1
:1019C00080936900E19AE99A4ECCE9988091690088
:1019D000837F80936900E19A2DCD85E592E00C9498
:1019E0005902E8EBF1E01382128288EE93E0A0E066
:1019F000B0E084839583A683B7838AE091E09183E6
:101A0000808385EC90E09587848784EC90E09787CD
:101A1000868780EC90E0918B808B81EC90E0938BBB
:101A2000828B82EC90E0958B848B86EC90E0978B98
:101A3000868B118E128E138E148E68E671E085E50A
:101A400092E00C94E402EE0FFF1F0590F491E02D5C
:101A50000994CF93DF938230910510F482E090E0F7
:101A6000E0915E02F0915F0220E030E0C0E0D0E063
:101A7000309711F14081518148175907C0F048173C
:101A8000590761F482819381209719F09B838A839F
:101A90002BC090935F0280935E0226C02115310512
:101AA00019F04217530718F49A01BE01DF01EF0144
:101AB0000280F381E02DDCCF2115310509F1281BCF
:101AC000390B2430310590F412968D919C91139727
:101AD0006115710521F0FB019383828304C090930B
:101AE0005F0280935E02FD01329644C0FD01E20F69
:101AF000F31F81939193225031092D933C933AC067
:101B000020915C0230915D02232B41F4209102016F
:101B10003091030130935D0220935C02209100011B
:101B2000309101012115310541F42DB73EB74091A7
:101B3000040150910501241B350BE0915C02F091EA
:101B40005D02E217F307A0F42E1B3F0B281739079D
:101B500078F0AC014E5F5F4F2417350748F04E0F09
:101B60005F1F50935D0240935C028193919302C08A
:101B7000E0E0F0E0CF01DF91CF9108950F931F9344
:101B8000CF93DF93009709F48CC0FC013297138246
:101B9000128200915E0210915F020115110581F41D
:101BA00020813181820F931F20915C0230915D0270
:101BB0002817390779F5F0935D02E0935C0271C054
:101BC000D80140E050E0AE17BF0750F412962D91B7
:101BD0003C911397AD012115310509F1D901F3CFDE
:101BE0009D01DA013383228360817181860F971F03
:101BF0008217930769F4EC0128813981260F371F7A
:101C00002E5F3F4F318320838A819B819383828320
:101C1000452B29F4F0935F02E0935E0242C01396D5
:101C2000FC93EE931297ED01499159919E01240F77
:101C3000351FE217F30771F480819181840F951F9E
:101C4000029611969C938E938281938113969C9316
:101C50008E931297E0E0F0E0D80112968D919C915E
:101C60001397009719F0F8018C01F6CF8D919C9194
:101C700098012E5F3F4F820F931F20915C0230919D
:101C80005D022817390769F4309729F410925F0232
:101C900010925E0202C01382128210935D020093C2
:101CA0005C02DF91CF911F910F910895A0E0B0E009
:101CB000ECE5FEE00C945011EC01009721F4CB010F
:101CC0000E94290DB8C0FC01E60FF71F9C012250AD
:101CD0003109E217F30708F4ACC0D9010D911C914A
:101CE000119706171707B0F00530110508F49FC0CB
:101CF000C80104978617970708F499C00250110984
:101D0000061B170B019311936D937C93CF010E94D7
:101D1000BE0D8DC05B01A01AB10A4C01800E911E50
:101D2000A0915E02B0915F0240E050E0E12CF12C06
:101D3000109709F44AC0A815B905D1F56D907C90AB
:101D40001197630182E0C80ED11CCA14DB0480F134
:101D5000A3014A195B096A0182E0C80ED11C1296E0
:101D6000BC9012971396AC91B5E0CB16D10440F01D
:101D7000B282A38351834083D9016D937C930AC0BF
:101D80000E5F1F4FC301800F911FF9019183808364
:101D9000EB2DFA2FE114F10431F0D7011396FC93E7
:101DA000EE93129744C0F0935F02E0935E023FC04F
:101DB0008D919C9111974817590708F4AC017D014A
:101DC00012960D90BC91A02DB3CF80915C029091A2
:101DD0005D0288159905E1F446175707C8F480910C
:101DE000000190910101009741F48DB79EB7409199
:101DF000040150910501841B950BE817F907C8F4FD
:101E0000F0935D02E0935C02F901718360830FC07F
:101E1000CB010E94290D7C01009759F0A801BE0159
:101E20000E94250FCE010E94BE0DC70104C0CE0145
:101E300002C080E090E0CDB7DEB7EEE00C946C110C
:101E400081E090E0F8940C949211FB01DC0102C057
:101E500001900D9241505040D8F70895FB01DC01EC
:101E60008D91019080190110D9F3990B0895FB0110
:101E7000DC0101900D920020E1F70895A0E0B0E0B0
:101E8000E4E4FFE00C944C115C016B017A016115F4
:101E9000710519F0FB0191838083E114F10429F0AD
:101EA000C7010297839708F0F1C0E5012196F5017B
:101EB0001081812F90E00E946D10892B11F05E013E
:101EC000F4CF1D3229F42196F501118101E007C0FC
:101ED0001B3221F4E5012296F501118100E0E114A5
:101EE000F10459F1F0E1EF16F10461F41033E1F47B
:101EF00088818F7D883569F519812296026070E1AD
:101F0000E72EF12C88E0E816F10439F12CF4F2E028
:101F1000EF16F104C9F12AC08AE0E816F10479F05D
:101F2000E0E1EE16F10411F550E1E52EF12C812CE3
:101F3000912CA12C68E0B62E2CC01033C9F23AE0E7
:101F4000E32EF12C4CEC842E982CA82C4CE0B42ED3
:101F500020C010E3E114F104A9F698E0E92EF12C79
:101F6000812C912CA12C20E1B22E13C060E070E0F6
:101F700080E090E897010F2C000C440B550B0E9459
:101F80001F1149015A0105C0812C912CA12C80E41C
:101F9000B82E60E020E030E0A90127010F2C000CF2
:101FA000660877081E01E0EDE10FEA3060F08FEB84
:101FB000810F8A3110F4E9EC05C08FE9810F8A3175
:101FC00028F5E9EAE10F8E2F90E08E159F05F4F4D5
:101FD00067FD18C082169306A406B50690F0C301EB
:101FE000B2010E940F119B01AC012E0F311D411D4A
:101FF000511D213031054105F0E85F0710F461E023
:1020000001C06FEF2196F1011081CCCF802F81703C
:10201000C114D10471F0662329F02197F601D18310
:10202000C08307C001FF19C02297F601D183C08386
:1020300014C067FF12C0811105C02FEF3FEF4FEFB3
:102040005FE704C020E030E040E050E882E290E04A
:10205000909361028093600216C0882341F05095EE
:102060004095309521953F4F4F4F5F4F0CC057FF24
:102070000AC082E290E090936102809360022FEFA9
:102080003FEF4FEF5FE7B901CA0104C060E070E0C5
:1020900080E090E0CDB7DEB7E2E10C946811FC017E
:1020A00088279927E89421912032E9F3293010F00C
:1020B0002E30C8F32B3241F02D3239F4689404C02D
:1020C0000E948C10820F911D219120532A30C0F361
:1020D0001EF4909581959F4F089591110C94E610F0
:1020E000803219F089508550C8F70895453251055E
:1020F00020F4423010F00C948110FB011082CB01CF
:102100000895BB274A3031F4992322F4BDE290951B
:1021100081959F4F0C94CD107AE0979F902D879FCB
:10212000802D910D112408952532310520F422309F
:1021300010F00C949F10FA011082CA010895BB2779
:10214000FA01A62F6217710581059105330B30FB4B
:1021500066F0AA27660F771F881F991FAA1FA2176C
:1021600010F0A21B63953850A9F7A05DAA3308F0C0
:10217000A95DA19336F7B111B1931082CA010C94F5
:10218000E9104532510520F4423010F00C94CC1087
:10219000FB011082CB010895BB27FB015527AA271D
:1021A000880F991FAA1FA41710F0A41B83955051E4
:1021B000B9F7A05DAA3308F0A95DA193009779F75C
:1021C000B111B1931192CB010C94E9109927882792
:1021D0000895DC01FC01672F71917723E1F73297B5
:1021E00004C07C916D9370836291AE17BF07C8F3F2
:1021F0000895F999FECF92BD81BDF89A992780B5CF
:102200000895262FF999FECF1FBA92BD81BD20BD3A
:102210000FB6F894FA9AF99A0FBE01960895DB0169
:102220008F939F930E944111BF91AF91A29F800D08
:10223000911DA39F900DB29F900D11240895A1E2CE
:102240001A2EAA1BBB1BFD010DC0AA1FBB1FEE1F30
:10225000FF1FA217B307E407F50720F0A21BB30B7B
:10226000E40BF50B661F771F881F991F1A9469F7F7
:1022700060957095809590959B01AC01BD01CF0153
:1022800008950E948311A59F900DB49F900DA49F67
:10229000800D911D112408952F923F924F925F92CD
:1022A0006F927F928F929F92AF92BF92CF92DF9266
:1022B000EF92FF920F931F93CF93DF93CDB7DEB7CB
:1022C000CA1BDB0B0FB6F894DEBF0FBECDBF09945F
:1022D0002A88398848885F846E847D848C849B84B6
:1022E000AA84B984C884DF80EE80FD800C811B81C4
:1022F000AA81B981CE0FD11D0FB6F894DEBF0FBEF3
:10230000CDBFED010895A29FB001B39FC001A39F6F
:10231000700D811D1124911DB29F700D811D11241E
:10232000911D089510E0CCE6D0E004C0FE010E94AB
:0E233000230D2196CD36D107C9F7F894FFCFC3
:10233E00000062028000000000001C019800E50011
:10234E00C300D70063014F4B00504900496E7661C0
:10235E006C69642050696E204E4F002000504F0073
:10236E0043002C0043686F6F736520616E204F75BC
:10237E00747075742050696E004700506C656173FF
:10238E006520456E7465722076616C696420706993
:0A239E006E00560044000D0A000016
:00000001FF
