:100000003CC100000C94E4080C94B2080C948008E5
:100010000C944E080C941C08DDC70000A9C7000012
:1000200075C70000C3C600001EC600006BC50000F7
:1000300055C1000053C1000051C100004FC1000074
:100040004DC100004BC1000049C1000047C1000084
:1000500045C1000043C1000041C10000E4C40000EC
:100060003DC100000CC40000E1C3000037C1000026
:1000700035C1000033C1000031C100002FC10000B4
:100080002DC100002BC1000029C1000027C10000C4
:1000900025C1000023C1000021C100001FC10000D4
:1000A0001DC100001BC1000019C1000017C10000E4
:1000B00015C1000013C1000011C100000FC10000F4
:1000C0000DC100000BC1000009C1000007C1000004
:1000D00005C1000003C1000001C10000FFC0000015
:1000E000FDC0000090049304820486048C04CA04BA
:1000F00097049B04A104A504A904AF04B304B704A6
:10010000CA04BD04C104C5040001040505030304B9
:1001100005060405060701000100030201000001B5
:10012000020304050607070605040302010007028F
:10013000010007060504030201000302010000019B
:100140000203040506070001020304050607020373
:10015000040506060700002200250028002B002EBB
:10016000003100340002010000050108010B01000C
:100170000020002300260029002C002F0032000060
:100180000100000301060109010505050507050831
:10019000080808020202020A0A080804040404010A
:1001A000010101010101010303030303030303042C
:1001B0000707070C0C0C0C0C0C0C0C0202020206BC
:1001C000060606060606060B0B0B0B0B0B0B0B01AC
:1001D0000210202008081020401020408002010258
:1001E0000108040201010204081020408080402020
:1001F000100804020180040201804020100804025B
:1002000001080402010102040810204080010204D8
:10021000081020408000000A0B02090C0D0E080790
:1002200003040100000000000000000000000000C6
:1002300000000000000000000000000000000000BE
:10024000001211100000000000000000000000007B
:100250000000000000000000000000000021002459
:100260000027002A002D00300033000101000004A7
:100270000107010A01002710231011241FBECFEF30
:10028000D1E2DEBFCDBF00E00CBF12E0A0E0B2E0E3
:10029000E4E9F9E200E00BBF02C007900D92AA3634
:1002A000B107D9F723E0AAE6B2E001C01D92A53755
:1002B000B207E1F711E0CCE3D1E000E006C02197FE
:1002C0000109802FFE010E945910CB33D10780E035
:1002D0000807A9F70E94CD090C94B91491CE08958E
:1002E000CF92DF92EF92FF920F931F93CF93DF9302
:1002F0006C017A018B01C0E0D0E0CE15DF0589F0FA
:10030000D8016D918D01D601ED91FC910190F081A4
:10031000E02DC6011995892B11F47E0102C02196AA
:10032000ECCFC701DF91CF911F910F91FF90EF901C
:10033000DF90CF900895FC01918D828D981761F028
:10034000828DDF01A80FB11D5D968C91928D9F5F0C
:100350009F73928F90E008958FEF9FEF0895FC01B7
:10036000918D828D981731F0828DE80FF11D858D6A
:1003700090E008958FEF9FEF0895FC01918D228DFD
:10038000892F90E0805C9F4F821B91098F73992782
:1003900008958BEC92E0F1DF21E0892B09F420E055
:1003A000822F0895FC01848DDF01A80FB11DA35A8F
:1003B000BF4F2C91848D90E001968F739927848F85
:1003C000A689B7892C93A089B1898C9180648C937C
:1003D000938D848D981306C00288F389E02D808167
:1003E0008F7D80830895EF92FF920F931F93CF9399
:1003F000DF93EC0181E0888F9B8D8C8D981305C075
:10040000E889F989808185FD23C0F62E0B8D10E0E7
:100410000F5F1F4F0F731127E02E8C8DE8120BC05A
:100420000FB607FCFACFE889F989808185FFF5CFFF
:10043000CE01B8DFF2CF8B8DFE01E80FF11DE35A3C
:10044000FF4FF0820B8FEA89FB898081806207C0B1
:10045000EE89FF896083E889F989808180648083DF
:1004600081E090E0DF91CF911F910F91FF90EF908D
:100470000895CF93DF93EC01888D8823C1F0EA893A
:10048000FB89808185FD05C0A889B9898C9186FD8D
:100490000EC00FB607FCF5CF808185FFF2CFA8898B
:1004A000B9898C9185FFEDCFCE017CDFE8CFDF915C
:1004B000CF91089580E090E0892B19F06ADF8111D7
:1004C00025C080E090E0892B41F080E090E0892B0E
:1004D00021F00E94000081111CC080E090E0892B77
:1004E00041F080E090E0892B21F00E940000811112
:1004F00013C080E090E0892BA1F080E090E0892B90
:1005000081F00E94000081110AC008950E9400003D
:10051000D8CF0E940000E1CF0E940000EACF0C94E7
:10052000000008958091C1028093B3028091C002BF
:100530008093B20208950E9472120F931F93CF937B
:10054000DF93EC0188819981009729F02A813B8112
:100550002617370788F48B016F5F7F4F0E948E113B
:10056000009761F0998388831B830A832C813D81E6
:10057000232B11F4FC01108281E001C080E0DF91A7
:10058000CF911F910F910895CF93DF93EC01888154
:100590009981009711F00E94F610198218821D822D
:1005A0001C821B821A82DF91CF910895EF92FF92F5
:1005B0000F931F93CF93DF93FC0124813581611545
:1005C000710511F480E018C041155105A1F07B01BF
:1005D000EC018A01020F131FB801AFDF882391F3EA
:1005E000288139818C819D81B701820F931F0E94E0
:1005F00088121D830C8381E0DF91CF911F910F91B1
:10060000FF90EF900895CF93DF93EC016115710592
:1006100059F0FB0101900020E9F73197AF01461B2B
:10062000570BC4DF811102C0CE01AEDFCE01DF91D6
:10063000CF910895CF93DF93EC01FB014481558165
:1006400060817181B3DF811102C0CE019DDFCE01D7
:10065000DF91CF910895EF92FF920F931F93CF9365
:10066000DF938C017B016115710561F0FB01019045
:100670000020E9F73197EF01C61BD70BBE015DDF04
:10068000811103C0C80180DF08C0F801D583C4838D
:10069000B701808191810E948812C801DF91CF91BA
:1006A0001F910F91FF90EF900895FC01808191813F
:1006B0000C94F6100F931F93CF93DF93CDB7DEB753
:1006C000A1970FB6F894DEBF0FBECDBF8C01CB0152
:1006D000BA01F801118210821382128215821482EB
:1006E00030E0AE014F5F5F4F0E94F813BE016F5FB5
:1006F0007F4FC801B0DFA1960FB6F894DEBF0FBEE2
:10070000CDBFDF91CF911F910F9108950F931F934C
:10071000CF93DF93CDB7DEB762970FB6F894DEBF05
:100720000FBECDBF8C01CB01F80111821082138264
:1007300012821582148250E0BE016F5F7F4F0E94CB
:10074000DC13BE016F5F7F4FC80185DF62960FB675
:10075000F894DEBF0FBECDBFDF91CF911F910F91F7
:1007600008950F931F93CF93DF93CDB7DEB72997EB
:100770000FB6F894DEBF0FBECDBF8C01862FF801F7
:1007800011821082138212821582148250E0BE01FF
:100790006F5F7F4F90E00E942314BE016F5F7F4F19
:1007A000C80159DF29960FB6F894DEBF0FBECDBF42
:1007B000DF91CF911F910F910895EF92FF920F93C8
:1007C0001F93CF93DF93EC01198218821B821A8248
:1007D0001D821C826115710511F18B01FB010190D5
:1007E0000020E9F731977F01E61AF70AB701A5DE85
:1007F000811108C0CE01DF91CF911F910F91FF9021
:10080000EF90C2CEFD82EC82B80188819981DF91A0
:10081000CF911F910F91FF90EF900C948812DF9170
:10082000CF911F910F91FF90EF9008951F920F921B
:100830000FB60F9211240BB60F922F933F934F9345
:100840005F936F937F938F939F93AF93BF93EF9338
:10085000FF938BEC92E0A6DDFF91EF91BF91AF91FA
:100860009F918F917F916F915F914F913F912F91C8
:100870000F900BBE0F900FBE0F901F9018951F92F8
:100880000F920FB60F9211240BB60F922F938F93E6
:100890009F93EF93FF93E091DB02F091DC02808164
:1008A000E091E102F091E20282FD12C0908180911C
:1008B000E4028F5F8F732091E502821751F0E0917F
:1008C000E402F0E0E553FD4F958F8093E40201C010
:1008D0008081FF91EF919F918F912F910F900BBE8F
:1008E0000F900FBE0F901F90189590E0FC0131976C
:1008F000E231F10508F04EC08827EE58FF4F8F4FC8
:100900000C945910809180008F7703C080918000F3
:100910008F7D80938000089580918000877FF9CF3C
:1009200084B58F7702C084B58F7D84BD0895809192
:10093000B0008F7703C08091B0008F7D8093B000AE
:100940000895809190008F7707C0809190008F7DEF
:1009500003C080919000877F8093900008958091DC
:10096000A0008F7707C08091A0008F7D03C0809189
:10097000A000877F8093A0000895809120018F7749
:1009800007C0809120018F7D03C080912001877F67
:10099000809320010895CF93DF9390E0FC01E15311
:1009A000FE4F2491FC01E757FE4F8491882361F1AB
:1009B00090E0880F991FFC01E55AFD4FC591D49135
:1009C000FC01EB5AFE4FA591B491611109C09FB78C
:1009D000F8948881209582238883EC912E230BC084
:1009E000623061F49FB7F8943881822F8095832319
:1009F0008883EC912E2B2C939FBF06C08FB7F89461
:100A0000E8812E2B28838FBFDF91CF9108952FB7D8
:100A1000F8946091C7027091C8028091C9029091C8
:100A2000CA022FBF08951F920F920FB60F92112482
:100A30002F933F938F939F93AF93BF938091C70260
:100A40009091C802A091C902B091CA023091C60229
:100A500023E0230F2D3720F40196A11DB11D05C001
:100A600026E8230F0296A11DB11D2093C602809394
:100A7000C7029093C802A093C902B093CA028091A2
:100A8000C2029091C302A091C402B091C502019626
:100A9000A11DB11D8093C2029093C302A093C40212
:100AA000B093C502BF91AF919F918F913F912F91CC
:100AB0000F900FBE0F901F90189590E0FC01E1532E
:100AC000FE4F2491FC01E757FE4F849190E0880F80
:100AD000991FFC01E55AFD4FA591B4913C91322339
:100AE00059F4FC01EB5AFE4FA591B491EC91E2232D
:100AF00031F480E090E0089581E090E0089582E094
:100B000090E008951F920F920FB60F9211240BB62A
:100B10000F922F933F934F935F936F937F938F9396
:100B20009F93AF93BF93CF93DF93EF93FF93D091B6
:100B30000601C0917A022091AD028091AC029D2FF6
:100B4000909598232D23922B80916D00CD27C8235B
:100B5000C923D0937A02CC2309F470C0C0FF0CC023
:100B60008EE38093C1028D2F81708093C002E0914B
:100B70007B02F0917C021995C1FF0CC08FE380933A
:100B8000C1028D2F82708093C002E0917D02F091AE
:100B90007E021995C2FF0CC080E48093C1028D2FA4
:100BA00084708093C002E0917F02F09180021995D9
:100BB000C3FF0CC081E48093C1028D2F88708093A5
:100BC000C002E0918102F09182021995C4FF0CC02D
:100BD00082E48093C1028D2F80718093C002E091E6
:100BE0008302F09184021995C5FF0CC083E48093C1
:100BF000C1028D2F80728093C002E0918502F09136
:100C000086021995C6FF0CC084E48093C1028D2F23
:100C100080748093C002E0918702F0918802199558
:100C2000C7FF0CC085E48093C1028D2F807880932C
:100C3000C002E0918902F0918A021995FF91EF912B
:100C4000DF91CF91BF91AF919F918F917F916F91E4
:100C50005F914F913F912F910F900BBE0F900FBE60
:100C60000F901F9018951F920F920FB60F9211249C
:100C70000BB60F922F933F934F935F936F937F9396
:100C80008F939F93AF93BF93CF93DF93EF93FF9394
:100C9000D0910301C0918C022091AF028091AE02ED
:100CA0009D2F909598232D23922B80918B02CD27F9
:100CB000C823C923D0938C02CC2309F462C0C0FF9F
:100CC0000CC08FE08093C1028D2F81708093C00291
:100CD000E0918D02F0918E021995C1FF0CC08EE05B
:100CE0008093C1028D2F82708093C002E0918F02A9
:100CF000F09190021995C2FF0CC086E48093C10266
:100D00008D2F84708093C002E0919102F091920245
:100D10001995C3FF0CC087E48093C1028D2F8870A2
:100D20008093C002E0919302F09194021995C4FF60
:100D30000CC088E48093C1028D2F80718093C00223
:100D4000E0919502F09196021995C5FF0CC089E4D7
:100D50008093C1028D2F80728093C002E091970230
:100D6000F09198021995C6FF0CC08AE48093C102E5
:100D70008D2F80748093C002E0919902F0919A02C5
:100D80001995FF91EF91DF91CF91BF91AF919F9115
:100D90008F917F916F915F914F913F912F910F9024
:100DA0000BBE0F900FBE0F901F9018951F920F92C1
:100DB0000FB60F9211240BB60F922F933F934F93C0
:100DC0005F936F937F938F939F93AF93BF93CF93D3
:100DD000DF93EF93FF93D3B1C0919B022091B102B7
:100DE0008091B0029D2F909598232D23922B809176
:100DF0006B00CD27C823C923D0939B02CC2309F4D1
:100E000070C0C0FF0CC085E38093C1028D2F81703C
:100E10008093C002E0919C02F0919D021995C1FF60
:100E20000CC084E38093C1028D2F82708093C00236
:100E3000E0919E02F0919F021995C2FF0CC083E3DE
:100E40008093C1028D2F84708093C002E091A00234
:100E5000F091A1021995C3FF0CC082E38093C102F7
:100E60008D2F88708093C002E091A202F091A302BE
:100E70001995C4FF0CC08AE08093C1028D2F807148
:100E80008093C002E091A402F091A5021995C5FFDC
:100E90000CC08BE08093C1028D2F80728093C002C2
:100EA000E091A602F091A7021995C6FF0CC08CE054
:100EB0008093C1028D2F80748093C002E091A802BC
:100EC000F091A9021995C7FF0CC08DE08093C10273
:100ED0008D2F80788093C002E091AA02F091AB023E
:100EE0001995FF91EF91DF91CF91BF91AF919F91B4
:100EF0008F917F916F915F914F913F912F910F90C3
:100F00000BBE0F900FBE0F901F9018951F920F925F
:100F10000FB60F9211240BB60F922F933F934F935E
:100F20005F936F937F938F939F93AF93BF93EF9351
:100F3000FF938CE48093C1028CB180788093C002CF
:100F4000E0917802F09179021995FF91EF91BF91AC
:100F5000AF919F918F917F916F915F914F913F9151
:100F60002F910F900BBE0F900FBE0F901F901895F2
:100F70001F920F920FB60F9211240BB60F922F9360
:100F80003F934F935F936F937F938F939F93AF9311
:100F9000BF93EF93FF938BE48093C1028CB1807475
:100FA0008093C002E0917602F09177021995FF914B
:100FB000EF91BF91AF919F918F917F916F915F91D1
:100FC0004F913F912F910F900BBE0F900FBE0F903E
:100FD0001F9018951F920F920FB60F9211240BB607
:100FE0000F922F933F934F935F936F937F938F93C2
:100FF0009F93AF93BF93EF93FF9383E08093C102DE
:101000008CB180728093C002E0917402F0917502FD
:101010001995FF91EF91BF91AF919F918F917F9122
:101020006F915F914F913F912F910F900BBE0F9059
:101030000FBE0F901F9018951F920F920FB60F9230
:1010400011240BB60F922F933F934F935F936F939F
:101050007F938F939F93AF93BF93EF93FF9382E020
:101060008093C1028CB180718093C002E0917202C2
:10107000F09173021995FF91EF91BF91AF919F91FC
:101080008F917F916F915F914F913F912F910F9031
:101090000BBE0F900FBE0F901F9018951F920F92CE
:1010A0000FB60F9211240BB60F922F933F934F93CD
:1010B0005F936F937F938F939F93AF93BF93EF93C0
:1010C000FF9382E18093C10289B188708093C0024E
:1010D000E0917002F09171021995FF91EF91BF912B
:1010E000AF919F918F917F916F915F914F913F91C0
:1010F0002F910F900BBE0F900FBE0F901F90189561
:101100001F920F920FB60F9211240BB60F922F93CE
:101110003F934F935F936F937F938F939F93AF937F
:10112000BF93EF93FF9383E18093C10289B18470F1
:101130008093C002E0916E02F0916F021995FF91C9
:10114000EF91BF91AF919F918F917F916F915F913F
:101150004F913F912F910F900BBE0F900FBE0F90AC
:101160001F9018951F920F920FB60F9211240BB675
:101170000F922F933F934F935F936F937F938F9330
:101180009F93AF93BF93EF93FF9384E18093C1024A
:1011900089B182708093C002E0916C02F0916D027F
:1011A0001995FF91EF91BF91AF919F918F917F9191
:1011B0006F915F914F913F912F910F900BBE0F90C8
:1011C0000FBE0F901F9018951F920F920FB60F929F
:1011D00011240BB60F922F933F934F935F936F930E
:1011E0007F938F939F93AF93BF93EF93FF9385E18B
:1011F0008093C10289B181708093C002E0916A023C
:10120000F0916B021995FF91EF91BF91AF919F9172
:101210008F917F916F915F914F913F912F910F909F
:101220000BBE0F900FBE0F901F901895CF93DF93BA
:10123000009771F0FC0101900020E9F73197AF01B0
:10124000481B590BBC018BEC92E04AD8EC0102C060
:10125000C0E0D0E042E050E066E672E08BEC92E065
:101260003FD88C0F9D1FDF91CF910895CF93DF93CF
:10127000FC0144815581608171818BEC92E030D812
:10128000EC0142E050E066E672E08BEC92E028D898
:101290008C0F9D1FDF91CF91089520916C033091A9
:1012A0006D038217930738F4209168033091690326
:1012B0002115310529F410926E038EE693E008950E
:1012C000820F931F0895FF920F931F93CF93DF9385
:1012D0008C0168E672E071DA80916C0390916D0385
:1012E0000097E1F0029718F0C2E0D0E002C0C1E040
:1012F000D0E0E0916803F0916903EC0FFD1FF080EE
:1013000010826091680370916903C801A4D980912B
:10131000680390916903C80FD91FF882C801DF9153
:10132000CF911F910F91FF9008950F931F936FDB43
:101330006093D3027093D4028093D5029093D60227
:10134000E091CB02F091CC020680F781E02D8BEC8E
:1013500092E0199597FF1EC05ADB0091D3021091BD
:10136000D4022091D5023091D602DC01CB01801B42
:10137000910BA20BB30B0091CF021091D0022091E0
:10138000D1023091D20280179107A207B307C0F2B1
:101390008FEF9FEF1F910F910895CF93DF93CDB7FC
:1013A000DEB76B970FB6F894DEBF0FBECDBF789453
:1013B00084B5826084BD84B5816084BD85B582605A
:1013C00085BD85B5816085BD80916E00816080930B
:1013D0006E00109281008091810082608093810074
:1013E0008091810081608093810080918000816084
:1013F000809380008091B10084608093B1008091DF
:10140000B00081608093B0008091910082608093F1
:101410009100809191008160809391008091900073
:101420008160809390008091A10082608093A100F0
:101430008091A10081608093A1008091A0008160D3
:101440008093A0008091210182608093210180918E
:10145000210181608093210180912001816080932E
:10146000200180917A00846080937A0080917A00D4
:10147000826080937A0080917A00816080937A0004
:1014800080917A00806880937A001092C100E09188
:10149000DB02F091DC0282E08083E091D702F091E0
:1014A000D8021082E091D902F091DA0280E18083C3
:1014B0001092E302E091DF02F091E00286E0808387
:1014C000E091DD02F091DE02808180618083E09115
:1014D000DD02F091DE02808188608083E091DD0290
:1014E000F091DE02808180688083E091DD02F091DE
:1014F000DE0280818F7D808380E090E00E9459141D
:101500008F3F19F002E010E00CC000E010E060E056
:10151000C8010E9461140F5F1F4F06341105B9F70F
:10152000F1CF0731110589F0C8018D7F499769F026
:101530000D31110551F0C8010E945914813011F488
:1015400062E001C061E0802F26DA0F5F1F4F063492
:10155000110539F786E192E069DE02E912E0FDE665
:10156000EF2EF12CA3E8CA2EA1E0DA2EBCE6AB2EBA
:10157000B12C83E7882E81E0982E9BE6692E712C92
:101580008BEC92E00E94BD0103970CF450C068E61A
:1015900072E0CE01019611D9C8DE97FD0FC08A30E6
:1015A000910561F08F83188641E050E0BE01695FCC
:1015B0007F4FCE0101960E94D602EECF8091680344
:1015C00090916903009781F069817A8161157105B5
:1015D00051F040916A0350916B032D813E81421777
:1015E000530708F028C502D689819A819093690330
:1015F000809368038B819C8190936B0380936A0333
:101600008D819E8190936D0380936C031A82198261
:101610001C821B821E821D82CE01019646D88091BB
:101620006C0390916D039093BF028093BE02CE0134
:10163000019649DE8D819E81892B49F069E172E036
:1016400089819A815CD755245394892B09F0512CB8
:10165000CE0101962AD8552009F46BC182E090E0B2
:101660001CDEFC0180818D8783E090E016DEFC01AA
:1016700080818E87CE010D960E94B7139C019093B6
:10168000BD028093BC0202978434910508F048C1E2
:1016900062E0822F2A8F398F2B8F7DD92A8D398D49
:1016A0008EEF820F9B8D823008F48EC08EEE820FFB
:1016B000843008F489C0F901E153FE4F8491F901A7
:1016C000E757FE4F9491923059F44091B102482B64
:1016D0004093B1024091B002482B4093B00219C030
:1016E0009A3059F44091AF02482B4093AF02409199
:1016F000AE02482B4093AE020CC09B3051F4409197
:10170000AD02482B4093AD024091AC02482B409370
:10171000AC02F901E85FFE4FA4919230A9F4B0E069
:10172000AA0FBB1FA456BD4F0D931C93F401A591A6
:10173000B4919C9190939B027092B5026092B40216
:1017400090916800916036C09A30E9F4B0E0AA0F39
:10175000BB1FA357BD4F0D931C93F601A591B491E8
:101760009C9190938C02B092B502A092B402909199
:10177000680092609093680090918B02982B9093F0
:101780008B02880F19C09B30B9F4B0E0AA0FBB1FC1
:10179000A558BD4F0D931C93E5E8F1E0A591B491D8
:1017A0009C9190937A02F092B502E092B4029091EB
:1017B0006800946090936800A091B402B091B50263
:1017C000EC918E2B8C937EC02FB7F894923109F454
:1017D00055C0C0F4923009F463C0933009F071C071
:1017E0001093750200937402ED9880916A00837FD4
:1017F00080936A0080916A00846080936A00E59A11
:10180000ED9A5FC09431B1F038F1953109F059C0CB
:1018100010936B0200936A02E898809169008C7FB4
:101820008093690080916900816080936900E09AEB
:10183000E89A47C010936D0200936C02E99880917A
:101840006900837F80936900809169008460809340
:101850006900E19AE99A35C010936F0200936E0215
:10186000EA98809169008F7C80936900809169007B
:10187000806180936900E29AEA9A23C01093710212
:1018800000937002EB98809169008F7380936900D8
:1018900080916900806480936900E39AEB9A11C09B
:1018A0001093730200937202EC9880916A008C7F0F
:1018B00080936A0080916A00816080936A00E49A54
:1018C000EC9A2FBF8091BC029091BD028115F0E18E
:1018D0009F0711F061E0F5D76091BC027091BD02E5
:1018E0004AE0CE0101960E9486036AE172E0CE01D1
:1018F00007960E94DD03BE016F5F7F4FCE01079602
:101900000E941A036AE172E00E940303AFDCCE0179
:1019100007960E945503CE0101960E94550303C00D
:101920008CE192E083DC6BE272E088E693E00E9457
:101930002B03CE010196C7DC8D819E81892B49F056
:101940006DE272E089819A81DAD555245394892B0E
:1019500009F0512CCE0101960E945503552009F43F
:1019600002C182E090E099DCFC0180818D8783E0F8
:1019700090E093DCFC0180818E87CE010D96F7D636
:101980002C019093BD028093BC0202978434910590
:1019900008F0E0C061E0842D4B8E0E94CB048FB72D
:1019A000F8942EEF240D9B8D223008F469C02EEEA2
:1019B000240D243008F464C0F201E153FE4F9491E9
:1019C000F201E757FE4FE491E230D1F420916B0031
:1019D0009095292320936B0020916B00211105C065
:1019E000209168002E7F209368002091B102292366
:1019F0002093B1022091B00292239093B0027BC059
:101A0000EA3009F540916C00292F30E0209530959F
:101A1000220F331F2160242320936C0020916C003F
:101A2000211105C0209168002D7F2093680020912E
:101A3000AF02909529232093AF022091AE0292230A
:101A40009093AE0258C0EB3009F055C020916D0064
:101A50009095292320936D0020916D00211105C0E0
:101A6000209168002B7F209368002091AD022923EC
:101A70002093AD02E091AC029E239093AC023BC058
:101A8000923151F160F4923079F19330A1F5ED98F3
:101A900090916A00937F90936A00E59A2CC09431EC
:101AA00059F090F0953139F5E898909169009C7F54
:101AB00090936900E09A1FC0E99890916900937F24
:101AC00090936900E19A17C0EA98909169009F7C11
:101AD00090936900E29A0FC0EB98909169009F7310
:101AE00090936900E39A07C0EC9890916A009C7FFC
:101AF00090936A00E49A8FBF8091BC029091BD02DE
:101B00008115F0E19F0711F060E0DBD66091BC0227
:101B10007091BD024AE0CE0101960E9486036AE1FF
:101B200072E0CE0107960E94DD03BE016F5F7F4F1A
:101B3000CE0107960E941A0369E272E00E94030335
:101B400095DBCE0107960E945503CE0101960E94B7
:101B5000550303C08CE192E069DB6BE272E088E63A
:101B600093E00E942B0380E090E097DBFC018081F2
:101B7000893409F05EC081E090E08FDBFC01808158
:101B80008D8782E090E089DBFC0180818E87CE0129
:101B90000D96EDD5BC019093BD028093BC020297D7
:101BA00084349105E8F5862F698F7A8F0E945D0550
:101BB000698D7A8D4AE00197A1F4CE0101960E94C9
:101BC00086036AE172E0CE0107960E94DD03BE0142
:101BD0006F5F7F4FCE0107960E941A0369E272E0A1
:101BE00013C0CE0101960E9486036AE172E0CE0125
:101BF00007960E94DD03BE016F5F7F4FCE010796FF
:101C00000E941A036AE172E00E9403032FDBCE01F7
:101C100007960E945503CE0101960E94550303C00A
:101C20008CE192E003DB6BE272E088E693E00E94D5
:101C30002B0380E090E031DBFC018081833509F0EB
:101C4000D6C08091BE029091BF0284309105A9F464
:101C500081E090E022DBFC01808189831A8240E1EF
:101C600050E060E070E0CE01019659D47093BD025F
:101C70006093BC0282E090E017C0059701F581E017
:101C800090E00BDBFC018081898382E090E005DB42
:101C9000FC0180818A83CE01019669D59093BD02B3
:101CA0008093BC0283E090E0F8DAFC018081082E8A
:101CB000000C990BC0979093BB028093BA0250908E
:101CC000BC024090BD02852D0E945D05019709F080
:101CD0008AC0252D342DC90102978434910508F05E
:101CE0007FC03090BA022090BB02F901EB5EFD4F3D
:101CF0008491F901E153FE4F9491F901E757FE4FAA
:101D000024912223D9F0882331F02A8F9B8F0E94BF
:101D100075049B8D2A8DE22FF0E0EE0FFF1FEB5A2A
:101D2000FE4FA591B4918FB7F894EC91311003C098
:101D300090959E2301C09E2B9C938FBF0E94070508
:101D4000AB01BC014093B6025093B7026093B80256
:101D50007093B9022AE0CE0101960E945A034AE02C
:101D6000632D722DCE0107960E9486034AE0652DF1
:101D7000742DCE010D960E94860360E372E0CE01C1
:101D800043960E94DD03BE01635F7F4FCE01439601
:101D90000E941A03BE01695F7F4F0E941A0362E32B
:101DA00072E00E940303BE016F5F7F4F0E941A031F
:101DB0005DDACE0143960E945503CE010D960E9436
:101DC0005503CE0107960E945503CE0101960E944D
:101DD00055036BE272E088E693E00E942B03B5C0E6
:101DE0008CE192E002C084E392E020DAAEC080E0B1
:101DF00090E053DAFC018081873409F068C081E00B
:101E000090E04BDAFC0180818B8B82E090E045DA38
:101E1000FC0180818C8BCE014396A9D49C019093C8
:101E2000BD028093BC0202978434910508F04CC037
:101E3000F901EB5EFD4F8491F901E153FE4F54909F
:101E4000F901E757FE4F4490442091F081110E9420
:101E50007504E42DF0E0EE0FFF1FE159FE4FA59150
:101E6000B491EC915E2261E070E021F460E002C088
:101E700060E070E06093BA027093BB024AE0CE016A
:101E800001960E9486036091BC027091BD024AE0F7
:101E9000CE0107960E94860369E472E0CE010D969A
:101EA0000E94DD03BE01695F7F4FCE010D960E9447
:101EB0001A03BE016F5F7F4F0E941A03D7D9CE016C
:101EC0000D960E94550339C08BE492E08ECF80E0DE
:101ED00090E0E3D9FC018081863549F44AE060E076
:101EE000CE0101960E94B10362E672E01AC080E062
:101EF00090E0D3D9FC018081843471F50E940705FC
:101F0000AB01BC014093B6025093B7026093B80294
:101F10007093B9022AE0CE0101960E945A0364E64A
:101F200072E0CE0107960E94DD03BE016F5F7F4F16
:101F3000CE0107960E941A0399D9CE0107960E94F6
:101F40005503CE0101960E9455036BE272E088E6CC
:101F500093E00E942B030FC080E090E09ED9FC012B
:101F60008081823541F41092B6021092B70210922D
:101F7000B8021092B9028091B302882309F454C0C8
:101F80008091B202823018F0F1E0F093B2020E9428
:101F90000705AB01BC014093B6025093B7026093B2
:101FA000B8027093B9022AE0CE0101960E945A034A
:101FB0006091B2024AE0CE0107960E94B10360919F
:101FC000B3024AE0CE010D960E94B10360E372E0D5
:101FD000CE0143960E94DD03BE01635F7F4FCE01B9
:101FE00043960E941A03BE01695F7F4F0E941A0345
:101FF00062E372E00E940303BE016F5F7F4F0E94A5
:102000001A0334D9CE0143960E945503CE010D9692
:102010000E945503CE0107960E945503CE010196FA
:102020000E9455031092B3028BEC92E00E94390299
:102030000E945A02A5CA6CD28D819E8190936D0335
:1020400080936C03E7CA88E693E00C945503EBECAD
:10205000F2E01382128288EE93E0A0E0B0E0848385
:102060009583A683B7838AE092E09183808385EC91
:1020700090E09587848784EC90E09787868780EC52
:1020800090E0918B808B81EC90E0938B828B82EC43
:1020900090E0958B848B86EC90E0978B868B118EED
:1020A000128E138E148E68E672E088E693E00C942C
:1020B000DD03EE0FFF1F881F8BBF0790F691E02D09
:1020C0001994CF93DF938230910510F482E090E071
:1020D000E0917103F091720320E030E0C0E0D0E0C5
:1020E000309711F14081518148175907C0F04817C6
:1020F000590761F482819381209719F09B838A8329
:102100002BC0909372038093710326C02115310573
:1021100019F04217530718F49A01BE01DF01EF01CD
:102120000280F381E02DDCCF2115310509F1281B58
:10213000390B2430310590F412968D919C911397B0
:102140006115710521F0FB019383828304C0909394
:10215000720380937103FD01329644C0FD01E20FCA
:10216000F31F81939193225031092D933C933AC0F0
:1021700020916F0330917003232B41F420910202D0
:10218000309103023093700320936F03209100027B
:10219000309101022115310541F42DB73EB7409130
:1021A000040250910502241B350BE0916F03F0915E
:1021B0007003E217F307A0F42E1B3F0B2817390713
:1021C00078F0AC014E5F5F4F2417350748F04E0F93
:1021D0005F1F5093700340936F038193919302C0EC
:1021E000E0E0F0E0CF01DF91CF9108950F931F93CE
:1021F000CF93DF93009709F48CC0FC0132971382D0
:10220000128200917103109172030115110581F47E
:1022100020813181820F931F20916F0330917003D1
:102220002817390779F5F0937003E0936F0371C0B5
:10223000D80140E050E0AE17BF0750F412962D9140
:102240003C911397AD012115310509F1D901F3CF67
:102250009D01DA013383228360817181860F971F8C
:102260008217930769F4EC0128813981260F371F03
:102270002E5F3F4F318320838A819B8193838283AA
:10228000452B29F4F0937203E093710342C0139637
:10229000FC93EE931297ED01499159919E01240F01
:1022A000351FE217F30771F480819181840F951F28
:1022B000029611969C938E938281938113969C93A0
:1022C0008E931297E0E0F0E0D80112968D919C91E8
:1022D0001397009719F0F8018C01F6CF8D919C911E
:1022E00098012E5F3F4F820F931F20916F03309113
:1022F00070032817390769F4309729F41092720394
:102300001092710302C01382128210937003009323
:102310006F03DF91CF911F910F9108956F927F927C
:102320008F929F92AF92BF92CF92DF92EF92FF92E5
:102330000F931F93CF93DF93EC01009781F4CB01B0
:10234000DF91CF911F910F91FF90EF90DF90CF9091
:10235000BF90AF909F908F907F906F90B2CEFC0116
:10236000E60FF71F9C0122503109E217F30708F42A
:10237000A8C0D9010D911C91119706171707A8F055
:102380000530110508F49BC0C8010497861797070C
:1023900008F495C002501109061B170B0193119305
:1023A0006D937C93CF0122DF8AC05B01A01AB10A32
:1023B0004C01800E911EA0917103B091720340E018
:1023C00050E0E12CF12C109709F44AC0A815B9058A
:1023D000D1F56D907C901197630182E0C80ED11CFD
:1023E000CA14DB0480F1A3014A195B096A0182E087
:1023F000C80ED11C1296BC9012971396AC91B5E002
:10240000CB16D10440F0B282A38351834083D9011B
:102410006D937C930AC00E5F1F4FC301800F911F05
:10242000F90191838083EB2DFA2FE114F10431F04F
:10243000D7011396FC93EE93129741C0F093720369
:10244000E09371033CC08D919C91119748175907F7
:1024500008F4AC017D0112960D90BC91A02DB3CF74
:1024600080916F039091700388159905E1F44617E8
:102470005707C8F48091000290910102009741F43F
:102480008DB79EB74091040250910502841B950BB5
:10249000E817F907B0F4F0937003E0936F03F901C4
:1024A000718360830CC0CB010CDE7C01009749F086
:1024B000A801BE011BD0CE0199DEC70104C0CE0128
:1024C00002C080E090E0DF91CF911F910F91FF90CB
:1024D000EF90DF90CF90BF90AF909F908F907F90C4
:1024E0006F90089581E090E0F89443C2FB01DC0115
:1024F00002C001900D9241505040D8F70895FB0161
:10250000DC018D91019080190110D9F3990B089588
:10251000FB01DC0101900D920020E1F708952F925C
:102520003F924F925F926F927F928F929F92AF9263
:10253000BF92CF92DF92EF92FF920F931F93CF93B0
:10254000DF935C016B017A016115710519F0FB01E4
:1025500091838083E114F10429F0C70102978397E6
:1025600008F0EEC0E5012196F5011081812F90E081
:102570001BD1892B11F05E01F5CF1D3229F4219674
:10258000F501118101E007C01B3221F4E50122961B
:10259000F501118100E0E114F10459F1F0E1EF16C9
:1025A000F10461F41033E1F488818F7D883569F599
:1025B00019812296026070E1E72EF12C88E0E8167E
:1025C000F10439F12CF4F2E0EF16F104C1F12AC064
:1025D0008AE0E816F10479F0E0E1EE16F10411F575
:1025E00050E1E52EF12C812C912CA12C68E0B62E27
:1025F0002BC01033C9F23AE0E32EF12C4CEC842EC0
:10260000982CA82C4CE0B42E1FC010E3E114F10468
:10261000A9F698E0E92EF12C812C912CA12C20E137
:10262000B22E12C060E070E080E090E897010F2CBD
:10263000000C440B550B62D149015A0105C0812C95
:10264000912CA12C80E4B82E60E020E030E0A901BC
:1026500027010F2C000C660877081E01E0EDE10F42
:10266000EA3060F08FEB810F8A3110F4E9EC05C09D
:102670008FE9810F8A3120F5E9EAE10F8E2F90E092
:102680008E159F05ECF467FD17C082169306A4060D
:10269000B50688F0C301B20122D19B01AC012E0F17
:1026A000311D411D511D213031054105F0E85F0705
:1026B00010F461E001C06FEF2196F1011081CDCFE0
:1026C000802F8170C114D10471F0662329F0219705
:1026D000F601D183C08307C001FF19C02297F6011C
:1026E000D183C08314C067FF12C0811105C02FEFD2
:1026F0003FEF4FEF5FE704C020E030E040E050E8FC
:1027000082E290E0909374038093730316C0882351
:1027100041F050954095309521953F4F4F4F5F4F79
:102720000CC057FF0AC082E290E09093740380933C
:1027300073032FEF3FEF4FEF5FE7B901CA0104C00A
:1027400060E070E080E090E0DF91CF911F910F9109
:10275000FF90EF90DF90CF90BF90AF909F908F90C1
:102760007F906F905F904F903F902F900895FC0165
:1027700088279927E89421912032E9F3293010F035
:102780002E30C8F32B3239F02D3231F4689403C067
:1027900027D0820F911D219120532A30C8F31EF4B7
:1027A000909581959F4F0895911170C0803219F0D6
:1027B00089508550D0F708954532510518F44230BC
:1027C00008F004C0FB011082CB010895BB274A30FA
:1027D00031F4992322F4BDE2909581959F4F3EC03C
:1027E0007AE0979F902D879F802D910D1124089559
:1027F0002532310518F4223008F004C0FA011082A5
:10280000CA010895BB27FA01A62F62177105810539
:102810009105330B30FB66F0AA27660F771F881FE0
:10282000991FAA1FA21710F0A21B63953850A9F791
:10283000A05DAA3308F0A95DA19336F7B111B19359
:102840001082CA0126C04532510518F4423008F002
:1028500004C0FB011082CB010895BB27FB01552763
:10286000AA27880F991FAA1FA41710F0A41B8395ED
:102870005051B9F7A05DAA3308F0A95DA193009764
:1028800079F7B111B1931192CB0103C09927882731
:102890000895DC01FC01672F71917723E1F73297EE
:1028A00004C07C916D9370836291AE17BF07C8F32B
:1028B0000895F999FECF92BD81BDF89A992780B508
:1028C0000895262FF999FECF1FBA92BD81BD20BD74
:1028D0000FB6F894FA9AF99A0FBE01960895DB01A3
:1028E0008F939F932DD0BF91AF91A29F800D911D8B
:1028F000A39F900DB29F900D11240895A1E21A2E6E
:10290000AA1BBB1BFD010DC0AA1FBB1FEE1FFF1F93
:10291000A217B307E407F50720F0A21BB30BE40BE3
:10292000F50B661F771F881F991F1A9469F760952A
:102930007095809590959B01AC01BD01CF010895E4
:1029400009D0A59F900DB49F900DA49F800D911D5F
:1029500011240895A29FB001B39FC001A39F700DE1
:10296000811D1124911DB29F700D811D1124911D97
:10297000089511E0CCE3D1E000E005C0802FFE0116
:1029800098DB2196011DCD33D10780E00807B1F710
:04299000F894FFCFE9
:1029940000007503800000000000F3017001BD0118
:1029A4009B01AF0139024F4B00504900496E7661DB
:1029B4006C69642050696E204E4F002000504F0017
:1029C40043002C0043686F6F736520616E204F7560
:1029D400747075742050696E004700506C656173A3
:1029E4006520456E7465722076616C696420706937
:0A29F4006E00560044000D0A0000BA
:00000001FF
